{
  "contractName": "ACoconutRenAdapter",
  "abi": [
    {
      "inputs": [
        {
          "internalType": "address",
          "name": "_registry",
          "type": "address"
        },
        {
          "internalType": "address",
          "name": "_acSwap",
          "type": "address"
        }
      ],
      "stateMutability": "nonpayable",
      "type": "constructor"
    },
    {
      "inputs": [],
      "name": "acSwap",
      "outputs": [
        {
          "internalType": "contract IAcoconutSwap",
          "name": "",
          "type": "address"
        }
      ],
      "stateMutability": "view",
      "type": "function"
    },
    {
      "inputs": [],
      "name": "registry",
      "outputs": [
        {
          "internalType": "contract IGatewayRegistry",
          "name": "",
          "type": "address"
        }
      ],
      "stateMutability": "view",
      "type": "function"
    },
    {
      "inputs": [
        {
          "internalType": "address",
          "name": "_target",
          "type": "address"
        },
        {
          "internalType": "uint256",
          "name": "_amount",
          "type": "uint256"
        },
        {
          "internalType": "bytes32",
          "name": "_nHash",
          "type": "bytes32"
        },
        {
          "internalType": "bytes",
          "name": "_sig",
          "type": "bytes"
        }
      ],
      "name": "mint",
      "outputs": [],
      "stateMutability": "nonpayable",
      "type": "function"
    }
  ],
  "bytecode": "0x60806040523480156200001157600080fd5b506040516200151338038062001513833981810160405260408110156200003757600080fd5b508051602090910151600160a060020a038216620000b657604080517f08c379a000000000000000000000000000000000000000000000000000000000815260206004820152601060248201527f7265676973747279206e6f742073657400000000000000000000000000000000604482015290519081900360640190fd5b600160a060020a0381166200012c57604080517f08c379a000000000000000000000000000000000000000000000000000000000815260206004820152600e60248201527f616353776170206e6f7420736574000000000000000000000000000000000000604482015290519081900360640190fd5b60008054600160a060020a03808516600160a060020a03199283161783556001805485831693169290921791829055604080517fcbdf382c0000000000000000000000000000000000000000000000000000000081529051929091169163cbdf382c91600480820192602092909190829003018186803b158015620001b057600080fd5b505afa158015620001c5573d6000803e3d6000fd5b505050506040513d6020811015620001dc57600080fd5b50516001549091506200020d90600160a060020a038084169116600019640100000000620006916200021682021704565b5050506200070c565b801580620002b95750604080517fdd62ed3e000000000000000000000000000000000000000000000000000000008152306004820152600160a060020a03848116602483015291519185169163dd62ed3e91604480820192602092909190829003018186803b1580156200028957600080fd5b505afa1580156200029e573d6000803e3d6000fd5b505050506040513d6020811015620002b557600080fd5b5051155b62000310576040517f08c379a0000000000000000000000000000000000000000000000000000000008152600401808060200182810382526036815260200180620014dd6036913960400191505060405180910390fd5b60408051600160a060020a03841660248201526044808201849052825180830390910181526064909101909152602081018051600160e060020a03167f095ea7b300000000000000000000000000000000000000000000000000000000179052620003869084906401000000006200038b810204565b505050565b6060620003f0826040518060400160405280602081526020017f5361666545524332303a206c6f772d6c6576656c2063616c6c206661696c656481525085600160a060020a03166200046a640100000000026200082417909291906401000000009004565b80519091501562000386578080602001905160208110156200041157600080fd5b505162000386576040517f08c379a000000000000000000000000000000000000000000000000000000000815260040180806020018281038252602a815260200180620014b3602a913960400191505060405180910390fd5b60606200048484846000856401000000006200048e810204565b90505b9392505050565b60603031831115620004ec576040517f08c379a00000000000000000000000000000000000000000000000000000000081526004018080602001828103825260268152602001806200148d6026913960400191505060405180910390fd5b620005008564010000000062000642810204565b6200056c57604080517f08c379a000000000000000000000000000000000000000000000000000000000815260206004820152601d60248201527f416464726573733a2063616c6c20746f206e6f6e2d636f6e7472616374000000604482015290519081900360640190fd5b6000606086600160a060020a031685876040518082805190602001908083835b60208310620005ad5780518252601f1990920191602091820191016200058c565b6001836020036101000a03801982511681845116808217855250505050505090500191505060006040518083038185875af1925050503d806000811462000611576040519150601f19603f3d011682016040523d82523d6000602084013e62000616565b606091505b50915091506200063782828662000648640100000000026401000000009004565b979650505050505050565b3b151590565b606083156200065957508162000487565b8251156200066a5782518084602001fd5b816040517f08c379a00000000000000000000000000000000000000000000000000000000081526004018080602001828103825283818151815260200191508051906020019080838360005b83811015620006d0578181015183820152602001620006b6565b50505050905090810190601f168015620006fe5780820380516001836020036101000a031916815260200191505b509250505060405180910390fd5b610d71806200071c6000396000f3fe608060405234801561001057600080fd5b506004361061005d577c01000000000000000000000000000000000000000000000000000000006000350463677c792381146100625780637b1039991461009357806396d66de01461009b575b600080fd5b61006a610136565b6040805173ffffffffffffffffffffffffffffffffffffffff9092168252519081900360200190f35b61006a610152565b610134600480360360808110156100b157600080fd5b73ffffffffffffffffffffffffffffffffffffffff82351691602081013591604082013591908101906080810160608201356401000000008111156100f557600080fd5b82018360208201111561010757600080fd5b8035906020019184600183028401116401000000008311171561012957600080fd5b50909250905061016e565b005b60015473ffffffffffffffffffffffffffffffffffffffff1681565b60005473ffffffffffffffffffffffffffffffffffffffff1681565b6040805173ffffffffffffffffffffffffffffffffffffffff808816602080840191909152835180840382018152838501808652815191830191909120600080547f64936b1e0000000000000000000000000000000000000000000000000000000090935260448601849052600360648701527f42544300000000000000000000000000000000000000000000000000000000006084870152955190959491909316926364936b1e9260a480840193919291829003018186803b15801561023457600080fd5b505afa158015610248573d6000803e3d6000fd5b505050506040513d602081101561025e57600080fd5b50516040517f159ab14d0000000000000000000000000000000000000000000000000000000081526004810184815260248201899052604482018890526080606483019081526084830187905273ffffffffffffffffffffffffffffffffffffffff9093169263159ab14d9286928b928b928b928b92909160a401848480828437600081840152601f19601f8201169050808301925050509650505050505050602060405180830381600087803b15801561031857600080fd5b505af115801561032c573d6000803e3d6000fd5b505050506040513d602081101561034257600080fd5b5051604080516002808252606080830184529394509091602083019080368337019050509050818160018151811061037657fe5b6020026020010181815250506000600160009054906101000a900473ffffffffffffffffffffffffffffffffffffffff1673ffffffffffffffffffffffffffffffffffffffff1663cbdf382c6040518163ffffffff167c010000000000000000000000000000000000000000000000000000000002815260040160206040518083038186803b15801561040857600080fd5b505afa15801561041c573d6000803e3d6000fd5b505050506040513d602081101561043257600080fd5b5051604080517f70a08231000000000000000000000000000000000000000000000000000000008152306004820152905191925060009173ffffffffffffffffffffffffffffffffffffffff8416916370a08231916024808301926020929190829003018186803b1580156104a657600080fd5b505afa1580156104ba573d6000803e3d6000fd5b505050506040513d60208110156104d057600080fd5b5051600154604080517f0bd062460000000000000000000000000000000000000000000000000000000081526000602482018190526004820192835287516044830152875194955073ffffffffffffffffffffffffffffffffffffffff90931693630bd062469388939092909182916064019060208681019102808383885b8381101561056757818101518382015260200161054f565b505050509050019350505050600060405180830381600087803b15801561058d57600080fd5b505af11580156105a1573d6000803e3d6000fd5b5050505060008273ffffffffffffffffffffffffffffffffffffffff166370a08231306040518263ffffffff167c0100000000000000000000000000000000000000000000000000000000028152600401808273ffffffffffffffffffffffffffffffffffffffff16815260200191505060206040518083038186803b15801561062a57600080fd5b505afa15801561063e573d6000803e3d6000fd5b505050506040513d602081101561065457600080fd5b505190506106848b610666838561083d565b73ffffffffffffffffffffffffffffffffffffffff8616919061087f565b5050505050505050505050565b80158061073d5750604080517fdd62ed3e00000000000000000000000000000000000000000000000000000000815230600482015273ffffffffffffffffffffffffffffffffffffffff848116602483015291519185169163dd62ed3e91604480820192602092909190829003018186803b15801561070f57600080fd5b505afa158015610723573d6000803e3d6000fd5b505050506040513d602081101561073957600080fd5b5051155b610792576040517f08c379a0000000000000000000000000000000000000000000000000000000008152600401808060200182810382526036815260200180610d066036913960400191505060405180910390fd5b6040805173ffffffffffffffffffffffffffffffffffffffff8416602482015260448082018490528251808303909101815260649091019091526020810180517bffffffffffffffffffffffffffffffffffffffffffffffffffffffff167f095ea7b30000000000000000000000000000000000000000000000000000000017905261081f908490610908565b505050565b606061083384846000856109e0565b90505b9392505050565b600061083683836040518060400160405280601e81526020017f536166654d6174683a207375627472616374696f6e206f766572666c6f770000815250610b7e565b6040805173ffffffffffffffffffffffffffffffffffffffff8416602482015260448082018490528251808303909101815260649091019091526020810180517bffffffffffffffffffffffffffffffffffffffffffffffffffffffff167fa9059cbb0000000000000000000000000000000000000000000000000000000017905261081f9084905b606061096a826040518060400160405280602081526020017f5361666545524332303a206c6f772d6c6576656c2063616c6c206661696c65648152508573ffffffffffffffffffffffffffffffffffffffff166108249092919063ffffffff16565b80519091501561081f5780806020019051602081101561098957600080fd5b505161081f576040517f08c379a000000000000000000000000000000000000000000000000000000000815260040180806020018281038252602a815260200180610cdc602a913960400191505060405180910390fd5b60603031831115610a3c576040517f08c379a0000000000000000000000000000000000000000000000000000000008152600401808060200182810382526026815260200180610cb66026913960400191505060405180910390fd5b610a4585610c2f565b610ab057604080517f08c379a000000000000000000000000000000000000000000000000000000000815260206004820152601d60248201527f416464726573733a2063616c6c20746f206e6f6e2d636f6e7472616374000000604482015290519081900360640190fd5b600060608673ffffffffffffffffffffffffffffffffffffffff1685876040518082805190602001908083835b60208310610afc5780518252601f199092019160209182019101610add565b6001836020036101000a03801982511681845116808217855250505050505090500191505060006040518083038185875af1925050503d8060008114610b5e576040519150601f19603f3d011682016040523d82523d6000602084013e610b63565b606091505b5091509150610b73828286610c35565b979650505050505050565b60008184841115610c27576040517f08c379a00000000000000000000000000000000000000000000000000000000081526004018080602001828103825283818151815260200191508051906020019080838360005b83811015610bec578181015183820152602001610bd4565b50505050905090810190601f168015610c195780820380516001836020036101000a031916815260200191505b509250505060405180910390fd5b505050900390565b3b151590565b60608315610c44575081610836565b825115610c545782518084602001fd5b6040517f08c379a0000000000000000000000000000000000000000000000000000000008152602060048201818152845160248401528451859391928392604401919085019080838360008315610bec578181015183820152602001610bd456fe416464726573733a20696e73756666696369656e742062616c616e636520666f722063616c6c5361666545524332303a204552433230206f7065726174696f6e20646964206e6f7420737563636565645361666545524332303a20617070726f76652066726f6d206e6f6e2d7a65726f20746f206e6f6e2d7a65726f20616c6c6f77616e6365a2646970667358221220b8f47cb29fc1d9926d82c7a1ed83c0a644f22dc8e07056ee336ef419b1ee9cce64736f6c634300060c0033416464726573733a20696e73756666696369656e742062616c616e636520666f722063616c6c5361666545524332303a204552433230206f7065726174696f6e20646964206e6f7420737563636565645361666545524332303a20617070726f76652066726f6d206e6f6e2d7a65726f20746f206e6f6e2d7a65726f20616c6c6f77616e6365",
  "source": "// SPDX-License-Identifier: MIT\npragma solidity 0.6.12;\n\nimport \"@openzeppelin/contracts/math/SafeMath.sol\";\nimport \"@openzeppelin/contracts/token/ERC20/IERC20.sol\";\nimport \"@openzeppelin/contracts/token/ERC20/SafeERC20.sol\";\n\ninterface IGateway {\n    function mint(\n        bytes32 _pHash,\n        uint256 _amount,\n        bytes32 _nHash,\n        bytes calldata _sig\n    ) external returns (uint256);\n\n    function burn(bytes calldata _to, uint256 _amount)\n        external\n        returns (uint256);\n}\n\ninterface IGatewayRegistry {\n    function getGatewayBySymbol(string calldata _tokenSymbol)\n        external\n        view\n        returns (IGateway);\n\n    function getTokenBySymbol(string calldata _tokenSymbol)\n        external\n        view\n        returns (IERC20);\n}\n\ninterface IAcoconutSwap {\n    function poolToken() external view returns (IERC20);\n\n    function mint(uint256[] calldata _amounts, uint256 _minMintAmount) external;\n}\n\ncontract ACoconutRenAdapter {\n    using SafeMath for uint256;\n    using SafeERC20 for IERC20;\n\n    IGatewayRegistry public registry;\n    IAcoconutSwap public acSwap;\n\n    constructor(\n        address _registry,\n        address _acSwap\n    ) public {\n        require(_registry != address(0x0), \"registry not set\");\n        require(_acSwap != address(0x0), \"acSwap not set\");\n\n        registry = IGatewayRegistry(_registry);\n        acSwap = IAcoconutSwap(_acSwap);\n        IERC20 acBTC = acSwap.poolToken();\n\n        acBTC.safeApprove(address(acSwap), uint256(-1));\n    }\n\n    function mint(\n        // Parameters from users\n        address _target,\n        // Parameters from Darknodes\n        uint256 _amount,\n        bytes32 _nHash,\n        bytes calldata _sig\n    ) public {\n        bytes32 pHash = keccak256(abi.encode(_target));\n        uint256 renBtcAmount = registry.getGatewayBySymbol(\"BTC\").mint(\n            pHash,\n            _amount,\n            _nHash,\n            _sig\n        );\n\n        uint256[] memory amounts = new uint256[](2);\n        amounts[1] = renBtcAmount;\n        IERC20 acBTC = acSwap.poolToken();\n        uint256 beforeAmount = acBTC.balanceOf(address(this));\n        acSwap.mint(amounts, 0);\n        uint256 afterAmount = acBTC.balanceOf(address(this));\n        acBTC.safeTransfer(_target, afterAmount.sub(beforeAmount));\n    }\n}\n",
  "sourcePath": "/Users/shengdading/git/acbtc-ren-adapter/contracts/ACoconutRenAdapter.sol",
  "compiler": {
    "name": "solc",
    "version": "0.6.12+commit.27d51765.Linux.g++"
  },
  "schemaVersion": "3.0.23",
  "updatedAt": "2020-12-16T23:39:39.227Z",
  "devdoc": {
    "kind": "dev",
    "methods": {},
    "version": 1
  },
  "userdoc": {
    "kind": "user",
    "methods": {},
    "version": 1
  }
}