{
  "contractName": "ACoconutRenAdapter",
  "abi": [
    {
      "inputs": [
        {
          "internalType": "address",
          "name": "_registry",
          "type": "address"
        },
        {
          "internalType": "address",
          "name": "_acSwap",
          "type": "address"
        },
        {
          "internalType": "address",
          "name": "_acBTC",
          "type": "address"
        }
      ],
      "stateMutability": "nonpayable",
      "type": "constructor"
    },
    {
      "inputs": [],
      "name": "acBTC",
      "outputs": [
        {
          "internalType": "contract IERC20",
          "name": "",
          "type": "address"
        }
      ],
      "stateMutability": "view",
      "type": "function"
    },
    {
      "inputs": [],
      "name": "acSwap",
      "outputs": [
        {
          "internalType": "contract IAcoconutSwap",
          "name": "",
          "type": "address"
        }
      ],
      "stateMutability": "view",
      "type": "function"
    },
    {
      "inputs": [],
      "name": "registry",
      "outputs": [
        {
          "internalType": "contract IGatewayRegistry",
          "name": "",
          "type": "address"
        }
      ],
      "stateMutability": "view",
      "type": "function"
    },
    {
      "inputs": [],
      "name": "renBTC",
      "outputs": [
        {
          "internalType": "contract IERC20",
          "name": "",
          "type": "address"
        }
      ],
      "stateMutability": "view",
      "type": "function"
    },
    {
      "inputs": [
        {
          "internalType": "address",
          "name": "_target",
          "type": "address"
        },
        {
          "internalType": "uint256",
          "name": "_minMintAmount",
          "type": "uint256"
        },
        {
          "internalType": "uint256",
          "name": "_amount",
          "type": "uint256"
        },
        {
          "internalType": "bytes32",
          "name": "_nHash",
          "type": "bytes32"
        },
        {
          "internalType": "bytes",
          "name": "_sig",
          "type": "bytes"
        }
      ],
      "name": "mint",
      "outputs": [],
      "stateMutability": "nonpayable",
      "type": "function"
    }
  ],
  "bytecode": "0x60806040523480156200001157600080fd5b50604051620016d9380380620016d9833981810160405260608110156200003757600080fd5b5080516020820151604090920151909190600160a060020a038316620000be57604080517f08c379a000000000000000000000000000000000000000000000000000000000815260206004820152601060248201527f7265676973747279206e6f742073657400000000000000000000000000000000604482015290519081900360640190fd5b600160a060020a0382166200013457604080517f08c379a000000000000000000000000000000000000000000000000000000000815260206004820152600e60248201527f616353776170206e6f7420736574000000000000000000000000000000000000604482015290519081900360640190fd5b600160a060020a038116620001aa57604080517f08c379a000000000000000000000000000000000000000000000000000000000815260206004820152600d60248201527f6163425443206e6f742073657400000000000000000000000000000000000000604482015290519081900360640190fd5b60008054600160a060020a03808616600160a060020a031992831617928390556001805486831690841617905560028054858316931692909217909155604080517fefa74f1f000000000000000000000000000000000000000000000000000000008152602060048201819052600360248301527f425443000000000000000000000000000000000000000000000000000000000060448301529151939092169263efa74f1f926064808201939291829003018186803b1580156200026e57600080fd5b505afa15801562000283573d6000803e3d6000fd5b505050506040513d60208110156200029a57600080fd5b505160038054600160a060020a031916600160a060020a03928316179055600154600254620002df929081169116600019640100000000620003178102620007561704565b6001546003546200030e91600160a060020a039182169116600019640100000000620007566200031782021704565b5050506200080d565b801580620003ba5750604080517fdd62ed3e000000000000000000000000000000000000000000000000000000008152306004820152600160a060020a03848116602483015291519185169163dd62ed3e91604480820192602092909190829003018186803b1580156200038a57600080fd5b505afa1580156200039f573d6000803e3d6000fd5b505050506040513d6020811015620003b657600080fd5b5051155b62000411576040517f08c379a0000000000000000000000000000000000000000000000000000000008152600401808060200182810382526036815260200180620016a36036913960400191505060405180910390fd5b60408051600160a060020a03841660248201526044808201849052825180830390910181526064909101909152602081018051600160e060020a03167f095ea7b300000000000000000000000000000000000000000000000000000000179052620004879084906401000000006200048c810204565b505050565b6060620004f1826040518060400160405280602081526020017f5361666545524332303a206c6f772d6c6576656c2063616c6c206661696c656481525085600160a060020a03166200056b64010000000002620008e917909291906401000000009004565b80519091501562000487578080602001905160208110156200051257600080fd5b505162000487576040517f08c379a000000000000000000000000000000000000000000000000000000000815260040180806020018281038252602a81526020018062001679602a913960400191505060405180910390fd5b60606200058584846000856401000000006200058f810204565b90505b9392505050565b60603031831115620005ed576040517f08c379a0000000000000000000000000000000000000000000000000000000008152600401808060200182810382526026815260200180620016536026913960400191505060405180910390fd5b620006018564010000000062000743810204565b6200066d57604080517f08c379a000000000000000000000000000000000000000000000000000000000815260206004820152601d60248201527f416464726573733a2063616c6c20746f206e6f6e2d636f6e7472616374000000604482015290519081900360640190fd5b6000606086600160a060020a031685876040518082805190602001908083835b60208310620006ae5780518252601f1990920191602091820191016200068d565b6001836020036101000a03801982511681845116808217855250505050505090500191505060006040518083038185875af1925050503d806000811462000712576040519150601f19603f3d011682016040523d82523d6000602084013e62000717565b606091505b50915091506200073882828662000749640100000000026401000000009004565b979650505050505050565b3b151590565b606083156200075a57508162000588565b8251156200076b5782518084602001fd5b816040517f08c379a00000000000000000000000000000000000000000000000000000000081526004018080602001828103825283818151815260200191508051906020019080838360005b83811015620007d1578181015183820152602001620007b7565b50505050905090810190601f168015620007ff5780820380516001836020036101000a031916815260200191505b509250505060405180910390fd5b610e36806200081d6000396000f3fe608060405234801561001057600080fd5b5060043610610084576000357c0100000000000000000000000000000000000000000000000000000000900480637b1039991161006d5780637b103999146100c2578063945adc3c146100ca578063df266daa1461016a57610084565b80635fbc103114610089578063677c7923146100ba575b600080fd5b610091610172565b6040805173ffffffffffffffffffffffffffffffffffffffff9092168252519081900360200190f35b61009161018e565b6100916101aa565b610168600480360360a08110156100e057600080fd5b73ffffffffffffffffffffffffffffffffffffffff8235169160208101359160408201359160608101359181019060a08101608082013564010000000081111561012957600080fd5b82018360208201111561013b57600080fd5b8035906020019184600183028401116401000000008311171561015d57600080fd5b5090925090506101c6565b005b61009161073a565b60035473ffffffffffffffffffffffffffffffffffffffff1681565b60015473ffffffffffffffffffffffffffffffffffffffff1681565b60005473ffffffffffffffffffffffffffffffffffffffff1681565b6040805173ffffffffffffffffffffffffffffffffffffffff80891660208084019190915282840189905283518084038501815260608401808652815191830191909120600080547f64936b1e0000000000000000000000000000000000000000000000000000000090935260648601849052600360848701527f425443000000000000000000000000000000000000000000000000000000000060a4870152955190959491909316926364936b1e9260c480840193919291829003018186803b15801561029357600080fd5b505afa1580156102a7573d6000803e3d6000fd5b505050506040513d60208110156102bd57600080fd5b50516040517f159ab14d0000000000000000000000000000000000000000000000000000000081526004810184815260248201899052604482018890526080606483019081526084830187905273ffffffffffffffffffffffffffffffffffffffff9093169263159ab14d9286928b928b928b928b92909160a401848480828437600081840152601f19601f8201169050808301925050509650505050505050602060405180830381600087803b15801561037757600080fd5b505af115801561038b573d6000803e3d6000fd5b505050506040513d60208110156103a157600080fd5b505160408051600280825260608083018452939450909160208301908036833701905050905081816001815181106103d557fe5b6020908102919091018101919091526001546040517fafb690a20000000000000000000000000000000000000000000000000000000081526004810183815284516024830152845160009473ffffffffffffffffffffffffffffffffffffffff9094169363afb690a293879392839260449092019185810191028083838b5b8381101561046c578181015183820152602001610454565b5050505090500192505050604080518083038186803b15801561048e57600080fd5b505afa1580156104a2573d6000803e3d6000fd5b505050506040513d60408110156104b857600080fd5b5051905088811061070a57600254604080517f70a08231000000000000000000000000000000000000000000000000000000008152306004820152905160009273ffffffffffffffffffffffffffffffffffffffff16916370a08231916024808301926020929190829003018186803b15801561053457600080fd5b505afa158015610548573d6000803e3d6000fd5b505050506040513d602081101561055e57600080fd5b5051600154604080517f0bd06246000000000000000000000000000000000000000000000000000000008152602481018e90526004810191825286516044820152865193945073ffffffffffffffffffffffffffffffffffffffff90921692630bd062469287928f92909182916064909101906020868101910280838360005b838110156105f65781810151838201526020016105de565b505050509050019350505050600060405180830381600087803b15801561061c57600080fd5b505af1158015610630573d6000803e3d6000fd5b5050600254604080517f70a0823100000000000000000000000000000000000000000000000000000000815230600482015290516000945073ffffffffffffffffffffffffffffffffffffffff90921692506370a08231916024808301926020929190829003018186803b1580156106a757600080fd5b505afa1580156106bb573d6000803e3d6000fd5b505050506040513d60208110156106d157600080fd5b505190506107038c6106e38385610902565b60025473ffffffffffffffffffffffffffffffffffffffff169190610944565b505061072e565b60035461072e9073ffffffffffffffffffffffffffffffffffffffff168b85610944565b50505050505050505050565b60025473ffffffffffffffffffffffffffffffffffffffff1681565b8015806108025750604080517fdd62ed3e00000000000000000000000000000000000000000000000000000000815230600482015273ffffffffffffffffffffffffffffffffffffffff848116602483015291519185169163dd62ed3e91604480820192602092909190829003018186803b1580156107d457600080fd5b505afa1580156107e8573d6000803e3d6000fd5b505050506040513d60208110156107fe57600080fd5b5051155b610857576040517f08c379a0000000000000000000000000000000000000000000000000000000008152600401808060200182810382526036815260200180610dcb6036913960400191505060405180910390fd5b6040805173ffffffffffffffffffffffffffffffffffffffff8416602482015260448082018490528251808303909101815260649091019091526020810180517bffffffffffffffffffffffffffffffffffffffffffffffffffffffff167f095ea7b3000000000000000000000000000000000000000000000000000000001790526108e49084906109cd565b505050565b60606108f88484600085610aa5565b90505b9392505050565b60006108fb83836040518060400160405280601e81526020017f536166654d6174683a207375627472616374696f6e206f766572666c6f770000815250610c43565b6040805173ffffffffffffffffffffffffffffffffffffffff8416602482015260448082018490528251808303909101815260649091019091526020810180517bffffffffffffffffffffffffffffffffffffffffffffffffffffffff167fa9059cbb000000000000000000000000000000000000000000000000000000001790526108e49084905b6060610a2f826040518060400160405280602081526020017f5361666545524332303a206c6f772d6c6576656c2063616c6c206661696c65648152508573ffffffffffffffffffffffffffffffffffffffff166108e99092919063ffffffff16565b8051909150156108e457808060200190516020811015610a4e57600080fd5b50516108e4576040517f08c379a000000000000000000000000000000000000000000000000000000000815260040180806020018281038252602a815260200180610da1602a913960400191505060405180910390fd5b60603031831115610b01576040517f08c379a0000000000000000000000000000000000000000000000000000000008152600401808060200182810382526026815260200180610d7b6026913960400191505060405180910390fd5b610b0a85610cf4565b610b7557604080517f08c379a000000000000000000000000000000000000000000000000000000000815260206004820152601d60248201527f416464726573733a2063616c6c20746f206e6f6e2d636f6e7472616374000000604482015290519081900360640190fd5b600060608673ffffffffffffffffffffffffffffffffffffffff1685876040518082805190602001908083835b60208310610bc15780518252601f199092019160209182019101610ba2565b6001836020036101000a03801982511681845116808217855250505050505090500191505060006040518083038185875af1925050503d8060008114610c23576040519150601f19603f3d011682016040523d82523d6000602084013e610c28565b606091505b5091509150610c38828286610cfa565b979650505050505050565b60008184841115610cec576040517f08c379a00000000000000000000000000000000000000000000000000000000081526004018080602001828103825283818151815260200191508051906020019080838360005b83811015610cb1578181015183820152602001610c99565b50505050905090810190601f168015610cde5780820380516001836020036101000a031916815260200191505b509250505060405180910390fd5b505050900390565b3b151590565b60608315610d095750816108fb565b825115610d195782518084602001fd5b6040517f08c379a0000000000000000000000000000000000000000000000000000000008152602060048201818152845160248401528451859391928392604401919085019080838360008315610cb1578181015183820152602001610c9956fe416464726573733a20696e73756666696369656e742062616c616e636520666f722063616c6c5361666545524332303a204552433230206f7065726174696f6e20646964206e6f7420737563636565645361666545524332303a20617070726f76652066726f6d206e6f6e2d7a65726f20746f206e6f6e2d7a65726f20616c6c6f77616e6365a26469706673582212202fd0791fc5d04fecc7a8c57974444855d6fd851c23e7836cbb8816f515f8d65764736f6c634300060c0033416464726573733a20696e73756666696369656e742062616c616e636520666f722063616c6c5361666545524332303a204552433230206f7065726174696f6e20646964206e6f7420737563636565645361666545524332303a20617070726f76652066726f6d206e6f6e2d7a65726f20746f206e6f6e2d7a65726f20616c6c6f77616e6365",
  "source": "// SPDX-License-Identifier: MIT\npragma solidity 0.6.12;\n\nimport \"@openzeppelin/contracts/math/SafeMath.sol\";\nimport \"@openzeppelin/contracts/token/ERC20/IERC20.sol\";\nimport \"@openzeppelin/contracts/token/ERC20/SafeERC20.sol\";\n\ninterface IGateway {\n    function mint(\n        bytes32 _pHash,\n        uint256 _amount,\n        bytes32 _nHash,\n        bytes calldata _sig\n    ) external returns (uint256);\n\n    function burn(bytes calldata _to, uint256 _amount)\n        external\n        returns (uint256);\n}\n\ninterface IGatewayRegistry {\n    function getGatewayBySymbol(string calldata _tokenSymbol)\n        external\n        view\n        returns (IGateway);\n\n    function getTokenBySymbol(string calldata _tokenSymbol)\n        external\n        view\n        returns (IERC20);\n}\n\ninterface IAcoconutSwap {\n    function getMintAmount(uint256[] calldata _amounts)\n        external\n        view\n        returns (uint256, uint256);\n\n    function mint(uint256[] calldata _amounts, uint256 _minMintAmount) external;\n}\n\ncontract ACoconutRenAdapter {\n    using SafeMath for uint256;\n    using SafeERC20 for IERC20;\n\n    IGatewayRegistry public registry;\n    IAcoconutSwap public acSwap;\n    IERC20 public acBTC;\n    IERC20 public renBTC;\n\n    constructor(\n        address _registry,\n        address _acSwap,\n        address _acBTC\n    ) public {\n        require(_registry != address(0x0), \"registry not set\");\n        require(_acSwap != address(0x0), \"acSwap not set\");\n        require(_acBTC != address(0x0), \"acBTC not set\");\n\n        registry = IGatewayRegistry(_registry);\n        acSwap = IAcoconutSwap(_acSwap);\n        acBTC = IERC20(_acBTC);\n        renBTC = registry.getTokenBySymbol(\"BTC\");\n\n        acBTC.safeApprove(address(acSwap), uint256(-1));\n        renBTC.safeApprove(address(acSwap), uint256(-1));\n    }\n\n    function mint(\n        // Parameters from users\n        address _target,\n        uint256 _minMintAmount,\n        // Parameters from Darknodes\n        uint256 _amount,\n        bytes32 _nHash,\n        bytes calldata _sig\n    ) public {\n        bytes32 pHash = keccak256(abi.encode(_target, _minMintAmount));\n        uint256 renBtcAmount = registry.getGatewayBySymbol(\"BTC\").mint(pHash, _amount, _nHash, _sig);\n        uint256[] memory amounts = new uint256[](2);\n        amounts[1] = renBtcAmount;\n        (uint256 mintAmount,) = acSwap.getMintAmount(amounts);\n\n        if (mintAmount >= _minMintAmount) {\n            // If it does not go beyond the slippage, mint acBTC\n            uint256 beforeAmount = acBTC.balanceOf(address(this));\n            acSwap.mint(amounts, _minMintAmount);\n            uint256 afterAmount = acBTC.balanceOf(address(this));\n            acBTC.safeTransfer(_target, afterAmount.sub(beforeAmount));\n        } else {\n            // Otherwise, send the renBTC to user!\n            renBTC.safeTransfer(_target, renBtcAmount);\n        }\n    }\n}\n",
  "sourcePath": "/Users/shengdading/git/acbtc-ren-adapter/contracts/ACoconutRenAdapter.sol",
  "compiler": {
    "name": "solc",
    "version": "0.6.12+commit.27d51765.Linux.g++"
  },
  "schemaVersion": "3.0.23",
  "updatedAt": "2020-12-16T08:22:20.623Z",
  "devdoc": {
    "kind": "dev",
    "methods": {},
    "version": 1
  },
  "userdoc": {
    "kind": "user",
    "methods": {},
    "version": 1
  }
}